{
  "address": "0xcB0843E566Ab25606e8886711B7Ff12CF92d64b8",
  "abi": [
    {
      "inputs": [],
      "stateMutability": "nonpayable",
      "type": "constructor"
    },
    {
      "anonymous": false,
      "inputs": [
        {
          "indexed": false,
          "internalType": "address",
          "name": "receiver",
          "type": "address"
        }
      ],
      "name": "MessageSent",
      "type": "event"
    },
    {
      "anonymous": false,
      "inputs": [
        {
          "indexed": false,
          "internalType": "uint256",
          "name": "amount",
          "type": "uint256"
        },
        {
          "indexed": false,
          "internalType": "address",
          "name": "receiver",
          "type": "address"
        }
      ],
      "name": "MoneySent",
      "type": "event"
    },
    {
      "anonymous": false,
      "inputs": [
        {
          "indexed": false,
          "internalType": "string",
          "name": "name",
          "type": "string"
        },
        {
          "indexed": false,
          "internalType": "address",
          "name": "contact",
          "type": "address"
        }
      ],
      "name": "NewContact",
      "type": "event"
    },
    {
      "inputs": [
        {
          "internalType": "address",
          "name": "contact",
          "type": "address"
        },
        {
          "internalType": "string",
          "name": "name",
          "type": "string"
        }
      ],
      "name": "addContact",
      "outputs": [],
      "stateMutability": "nonpayable",
      "type": "function"
    },
    {
      "inputs": [
        {
          "internalType": "string",
          "name": "contact",
          "type": "string"
        },
        {
          "internalType": "string",
          "name": "_message",
          "type": "string"
        }
      ],
      "name": "sendMessage",
      "outputs": [],
      "stateMutability": "nonpayable",
      "type": "function"
    },
    {
      "inputs": [
        {
          "internalType": "address",
          "name": "_receiver",
          "type": "address"
        },
        {
          "internalType": "string",
          "name": "_message",
          "type": "string"
        }
      ],
      "name": "sendMessage",
      "outputs": [],
      "stateMutability": "nonpayable",
      "type": "function"
    },
    {
      "inputs": [
        {
          "internalType": "address",
          "name": "receiver",
          "type": "address"
        }
      ],
      "name": "transferMoney",
      "outputs": [],
      "stateMutability": "payable",
      "type": "function"
    },
    {
      "inputs": [
        {
          "internalType": "string",
          "name": "contact",
          "type": "string"
        }
      ],
      "name": "transferMoney",
      "outputs": [],
      "stateMutability": "payable",
      "type": "function"
    }
  ],
  "transactionHash": "0xc8acfe2ccc6efadb7fe15b14102fd1a2d55c414e9bfb9df70a300bdd09252a01",
  "args": [],
  "numDeployments": 1,
  "solcInputHash": "1d7f7e012d85230925adbbe97f7f71c3",
  "bytecode": "0x608060405234801561001057600080fd5b50610ffd806100206000396000f3fe60806040526004361061004a5760003560e01c8063467fba0f1461004f57806386ce983514610078578063c444816414610094578063de6f24bb146100bd578063f7aff901146100e6575b600080fd5b34801561005b57600080fd5b5061007660048036038101906100719190610a5c565b610102565b005b610092600480360381019061008d9190610b32565b61018d565b005b3480156100a057600080fd5b506100bb60048036038101906100b69190610b5f565b61027c565b005b3480156100c957600080fd5b506100e460048036038101906100df9190610b5f565b610355565b005b61010060048036038101906100fb9190610bbb565b61072c565b005b6101896000803373ffffffffffffffffffffffffffffffffffffffff1673ffffffffffffffffffffffffffffffffffffffff168152602001908152602001600020600001836040516101549190610c7e565b908152602001604051809103902060009054906101000a900473ffffffffffffffffffffffffffffffffffffffff1682610355565b5050565b600034905060008273ffffffffffffffffffffffffffffffffffffffff16826040516101b890610cc6565b60006040518083038185875af1925050503d80600081146101f5576040519150601f19603f3d011682016040523d82523d6000602084013e6101fa565b606091505b505090508061023e576040517f08c379a000000000000000000000000000000000000000000000000000000000815260040161023590610d5e565b60405180910390fd5b7f0b77e93198e3ea13e1ef680f332d27d469ce973aa4f0a9eaba4a9b19b63490b6828460405161026f929190610da6565b60405180910390a1505050565b816000803373ffffffffffffffffffffffffffffffffffffffff1673ffffffffffffffffffffffffffffffffffffffff168152602001908152602001600020600001826040516102cc9190610c7e565b908152602001604051809103902060006101000a81548173ffffffffffffffffffffffffffffffffffffffff021916908373ffffffffffffffffffffffffffffffffffffffff1602179055507fffbbe743847bdc2d03cb6e8de2e621e0a0aeb9ffc729516157509cfcc2d663c68183604051610349929190610e08565b60405180910390a15050565b600060405180606001604052808381526020013373ffffffffffffffffffffffffffffffffffffffff1681526020018473ffffffffffffffffffffffffffffffffffffffff16815250905060008060003373ffffffffffffffffffffffffffffffffffffffff1673ffffffffffffffffffffffffffffffffffffffff168152602001908152602001600020905060008060008673ffffffffffffffffffffffffffffffffffffffff1673ffffffffffffffffffffffffffffffffffffffff1681526020019081526020016000209050828260020160008773ffffffffffffffffffffffffffffffffffffffff1673ffffffffffffffffffffffffffffffffffffffff1681526020019081526020016000208360030160008873ffffffffffffffffffffffffffffffffffffffff1673ffffffffffffffffffffffffffffffffffffffff16815260200190815260200160002060008154809291906104b890610e67565b91905055815481106104cd576104cc610eb0565b5b906000526020600020906003020160008201518160000190805190602001906104f792919061085f565b5060208201518160010160006101000a81548173ffffffffffffffffffffffffffffffffffffffff021916908373ffffffffffffffffffffffffffffffffffffffff16021790555060408201518160020160006101000a81548173ffffffffffffffffffffffffffffffffffffffff021916908373ffffffffffffffffffffffffffffffffffffffff160217905550905050828160020160003373ffffffffffffffffffffffffffffffffffffffff1673ffffffffffffffffffffffffffffffffffffffff1681526020019081526020016000208260030160003373ffffffffffffffffffffffffffffffffffffffff1673ffffffffffffffffffffffffffffffffffffffff168152602001908152602001600020600081548092919061061d90610e67565b919050558154811061063257610631610eb0565b5b9060005260206000209060030201600082015181600001908051906020019061065c92919061085f565b5060208201518160010160006101000a81548173ffffffffffffffffffffffffffffffffffffffff021916908373ffffffffffffffffffffffffffffffffffffffff16021790555060408201518160020160006101000a81548173ffffffffffffffffffffffffffffffffffffffff021916908373ffffffffffffffffffffffffffffffffffffffff1602179055509050507f0a62cfe8530aabd2e08e693f25db140f017d0001092cfefc2ffaf4f52237b91f8560405161071d9190610edf565b60405180910390a15050505050565b6000803373ffffffffffffffffffffffffffffffffffffffff1673ffffffffffffffffffffffffffffffffffffffff1681526020019081526020016000206001018160405161077b9190610c7e565b908152602001604051809103902060009054906101000a900460ff166107d6576040517f08c379a00000000000000000000000000000000000000000000000000000000081526004016107cd90610f46565b60405180910390fd5b61085c6000803373ffffffffffffffffffffffffffffffffffffffff1673ffffffffffffffffffffffffffffffffffffffff168152602001908152602001600020600001826040516108289190610c7e565b908152602001604051809103902060009054906101000a900473ffffffffffffffffffffffffffffffffffffffff1661018d565b50565b82805461086b90610f95565b90600052602060002090601f01602090048101928261088d57600085556108d4565b82601f106108a657805160ff19168380011785556108d4565b828001600101855582156108d4579182015b828111156108d35782518255916020019190600101906108b8565b5b5090506108e191906108e5565b5090565b5b808211156108fe5760008160009055506001016108e6565b5090565b6000604051905090565b600080fd5b600080fd5b600080fd5b600080fd5b6000601f19601f8301169050919050565b7f4e487b7100000000000000000000000000000000000000000000000000000000600052604160045260246000fd5b61096982610920565b810181811067ffffffffffffffff8211171561098857610987610931565b5b80604052505050565b600061099b610902565b90506109a78282610960565b919050565b600067ffffffffffffffff8211156109c7576109c6610931565b5b6109d082610920565b9050602081019050919050565b82818337600083830152505050565b60006109ff6109fa846109ac565b610991565b905082815260208101848484011115610a1b57610a1a61091b565b5b610a268482856109dd565b509392505050565b600082601f830112610a4357610a42610916565b5b8135610a538482602086016109ec565b91505092915050565b60008060408385031215610a7357610a7261090c565b5b600083013567ffffffffffffffff811115610a9157610a90610911565b5b610a9d85828601610a2e565b925050602083013567ffffffffffffffff811115610abe57610abd610911565b5b610aca85828601610a2e565b9150509250929050565b600073ffffffffffffffffffffffffffffffffffffffff82169050919050565b6000610aff82610ad4565b9050919050565b610b0f81610af4565b8114610b1a57600080fd5b50565b600081359050610b2c81610b06565b92915050565b600060208284031215610b4857610b4761090c565b5b6000610b5684828501610b1d565b91505092915050565b60008060408385031215610b7657610b7561090c565b5b6000610b8485828601610b1d565b925050602083013567ffffffffffffffff811115610ba557610ba4610911565b5b610bb185828601610a2e565b9150509250929050565b600060208284031215610bd157610bd061090c565b5b600082013567ffffffffffffffff811115610bef57610bee610911565b5b610bfb84828501610a2e565b91505092915050565b600081519050919050565b600081905092915050565b60005b83811015610c38578082015181840152602081019050610c1d565b83811115610c47576000848401525b50505050565b6000610c5882610c04565b610c628185610c0f565b9350610c72818560208601610c1a565b80840191505092915050565b6000610c8a8284610c4d565b915081905092915050565b600081905092915050565b50565b6000610cb0600083610c95565b9150610cbb82610ca0565b600082019050919050565b6000610cd182610ca3565b9150819050919050565b600082825260208201905092915050565b7f54686572652077617320616e206572726f7221205472616e736665722066616960008201527f6c65642e00000000000000000000000000000000000000000000000000000000602082015250565b6000610d48602483610cdb565b9150610d5382610cec565b604082019050919050565b60006020820190508181036000830152610d7781610d3b565b9050919050565b6000819050919050565b610d9181610d7e565b82525050565b610da081610af4565b82525050565b6000604082019050610dbb6000830185610d88565b610dc86020830184610d97565b9392505050565b6000610dda82610c04565b610de48185610cdb565b9350610df4818560208601610c1a565b610dfd81610920565b840191505092915050565b60006040820190508181036000830152610e228185610dcf565b9050610e316020830184610d97565b9392505050565b7f4e487b7100000000000000000000000000000000000000000000000000000000600052601160045260246000fd5b6000610e7282610d7e565b91507fffffffffffffffffffffffffffffffffffffffffffffffffffffffffffffffff821415610ea557610ea4610e38565b5b600182019050919050565b7f4e487b7100000000000000000000000000000000000000000000000000000000600052603260045260246000fd5b6000602082019050610ef46000830184610d97565b92915050565b7f436f6e7461637420646f65736e74206578697374000000000000000000000000600082015250565b6000610f30601483610cdb565b9150610f3b82610efa565b602082019050919050565b60006020820190508181036000830152610f5f81610f23565b9050919050565b7f4e487b7100000000000000000000000000000000000000000000000000000000600052602260045260246000fd5b60006002820490506001821680610fad57607f821691505b60208210811415610fc157610fc0610f66565b5b5091905056fea2646970667358221220e43f9ccb2723fe1da15c657890c65bccd8c49b66353b70d2136c859f1140931d64736f6c63430008090033",
  "devdoc": {
    "kind": "dev",
    "methods": {},
    "version": 1
  },
  "userdoc": {
    "kind": "user",
    "methods": {},
    "version": 1
  },
  "storageLayout": {
    "storage": [
      {
        "astId": 113,
        "contract": "contracts/M3ssaging3.sol:M3ssaging3",
        "label": "users",
        "offset": 0,
        "slot": "0",
        "type": "t_mapping(t_address,t_struct(User)101_storage)"
      }
    ],
    "types": {
      "t_address": {
        "encoding": "inplace",
        "label": "address",
        "numberOfBytes": "20"
      },
      "t_array(t_struct(Message)108_storage)dyn_storage": {
        "base": "t_struct(Message)108_storage",
        "encoding": "dynamic_array",
        "label": "struct M3ssaging3.Message[]",
        "numberOfBytes": "32"
      },
      "t_bool": {
        "encoding": "inplace",
        "label": "bool",
        "numberOfBytes": "1"
      },
      "t_mapping(t_address,t_array(t_struct(Message)108_storage)dyn_storage)": {
        "encoding": "mapping",
        "key": "t_address",
        "label": "mapping(address => struct M3ssaging3.Message[])",
        "numberOfBytes": "32",
        "value": "t_array(t_struct(Message)108_storage)dyn_storage"
      },
      "t_mapping(t_address,t_struct(User)101_storage)": {
        "encoding": "mapping",
        "key": "t_address",
        "label": "mapping(address => struct M3ssaging3.User)",
        "numberOfBytes": "32",
        "value": "t_struct(User)101_storage"
      },
      "t_mapping(t_address,t_uint256)": {
        "encoding": "mapping",
        "key": "t_address",
        "label": "mapping(address => uint256)",
        "numberOfBytes": "32",
        "value": "t_uint256"
      },
      "t_mapping(t_string_memory_ptr,t_address)": {
        "encoding": "mapping",
        "key": "t_string_memory_ptr",
        "label": "mapping(string => address)",
        "numberOfBytes": "32",
        "value": "t_address"
      },
      "t_mapping(t_string_memory_ptr,t_bool)": {
        "encoding": "mapping",
        "key": "t_string_memory_ptr",
        "label": "mapping(string => bool)",
        "numberOfBytes": "32",
        "value": "t_bool"
      },
      "t_string_memory_ptr": {
        "encoding": "bytes",
        "label": "string",
        "numberOfBytes": "32"
      },
      "t_string_storage": {
        "encoding": "bytes",
        "label": "string",
        "numberOfBytes": "32"
      },
      "t_struct(Message)108_storage": {
        "encoding": "inplace",
        "label": "struct M3ssaging3.Message",
        "members": [
          {
            "astId": 103,
            "contract": "contracts/M3ssaging3.sol:M3ssaging3",
            "label": "message",
            "offset": 0,
            "slot": "0",
            "type": "t_string_storage"
          },
          {
            "astId": 105,
            "contract": "contracts/M3ssaging3.sol:M3ssaging3",
            "label": "sender",
            "offset": 0,
            "slot": "1",
            "type": "t_address"
          },
          {
            "astId": 107,
            "contract": "contracts/M3ssaging3.sol:M3ssaging3",
            "label": "receiver",
            "offset": 0,
            "slot": "2",
            "type": "t_address"
          }
        ],
        "numberOfBytes": "96"
      },
      "t_struct(User)101_storage": {
        "encoding": "inplace",
        "label": "struct M3ssaging3.User",
        "members": [
          {
            "astId": 86,
            "contract": "contracts/M3ssaging3.sol:M3ssaging3",
            "label": "contacts",
            "offset": 0,
            "slot": "0",
            "type": "t_mapping(t_string_memory_ptr,t_address)"
          },
          {
            "astId": 90,
            "contract": "contracts/M3ssaging3.sol:M3ssaging3",
            "label": "contactExists",
            "offset": 0,
            "slot": "1",
            "type": "t_mapping(t_string_memory_ptr,t_bool)"
          },
          {
            "astId": 96,
            "contract": "contracts/M3ssaging3.sol:M3ssaging3",
            "label": "chat",
            "offset": 0,
            "slot": "2",
            "type": "t_mapping(t_address,t_array(t_struct(Message)108_storage)dyn_storage)"
          },
          {
            "astId": 100,
            "contract": "contracts/M3ssaging3.sol:M3ssaging3",
            "label": "counterMessages",
            "offset": 0,
            "slot": "3",
            "type": "t_mapping(t_address,t_uint256)"
          }
        ],
        "numberOfBytes": "128"
      },
      "t_uint256": {
        "encoding": "inplace",
        "label": "uint256",
        "numberOfBytes": "32"
      }
    }
  }
}