{
  "address": "0x81EF525fbC4B948eb89e9EEFCd8dE898bD04a356",
  "abi": [
    {
      "inputs": [],
      "stateMutability": "nonpayable",
      "type": "constructor"
    },
    {
      "anonymous": false,
      "inputs": [
        {
          "indexed": false,
          "internalType": "address",
          "name": "receiver",
          "type": "address"
        }
      ],
      "name": "MessageSent",
      "type": "event"
    },
    {
      "anonymous": false,
      "inputs": [
        {
          "indexed": false,
          "internalType": "uint256",
          "name": "amount",
          "type": "uint256"
        },
        {
          "indexed": false,
          "internalType": "address",
          "name": "receiver",
          "type": "address"
        }
      ],
      "name": "MoneySent",
      "type": "event"
    },
    {
      "anonymous": false,
      "inputs": [
        {
          "indexed": false,
          "internalType": "string",
          "name": "name",
          "type": "string"
        },
        {
          "indexed": false,
          "internalType": "address",
          "name": "contact",
          "type": "address"
        }
      ],
      "name": "NewContact",
      "type": "event"
    },
    {
      "inputs": [
        {
          "internalType": "address",
          "name": "contact",
          "type": "address"
        },
        {
          "internalType": "string",
          "name": "name",
          "type": "string"
        }
      ],
      "name": "addContact",
      "outputs": [],
      "stateMutability": "nonpayable",
      "type": "function"
    },
    {
      "inputs": [
        {
          "internalType": "string",
          "name": "contact",
          "type": "string"
        },
        {
          "internalType": "string",
          "name": "_message",
          "type": "string"
        }
      ],
      "name": "sendMessage",
      "outputs": [],
      "stateMutability": "nonpayable",
      "type": "function"
    },
    {
      "inputs": [
        {
          "internalType": "address",
          "name": "_receiver",
          "type": "address"
        },
        {
          "internalType": "string",
          "name": "_message",
          "type": "string"
        }
      ],
      "name": "sendMessageToAddress",
      "outputs": [],
      "stateMutability": "nonpayable",
      "type": "function"
    },
    {
      "inputs": [
        {
          "internalType": "address",
          "name": "receiver",
          "type": "address"
        }
      ],
      "name": "transferMoney",
      "outputs": [],
      "stateMutability": "payable",
      "type": "function"
    },
    {
      "inputs": [
        {
          "internalType": "string",
          "name": "contact",
          "type": "string"
        }
      ],
      "name": "transferMoney",
      "outputs": [],
      "stateMutability": "payable",
      "type": "function"
    }
  ],
  "transactionHash": "0xa89fcc83f207de63f2179b9fc6bc1a24d6abd07bea90d4a1b1038081e94bfd74",
  "args": [],
  "numDeployments": 9,
  "solcInputHash": "ecc6dbbbbf9247fc3f2af1024c9acb07",
  "bytecode": "0x608060405234801561001057600080fd5b50610ffd806100206000396000f3fe60806040526004361061004a5760003560e01c80632073a4201461004f578063467fba0f1461007857806386ce9835146100a1578063c4448164146100bd578063f7aff901146100e6575b600080fd5b34801561005b57600080fd5b5061007660048036038101906100719190610aba565b610102565b005b34801561008457600080fd5b5061009f600480360381019061009a9190610b16565b6104d9565b005b6100bb60048036038101906100b69190610b8e565b610564565b005b3480156100c957600080fd5b506100e460048036038101906100df9190610aba565b610653565b005b61010060048036038101906100fb9190610bbb565b61072c565b005b600060405180606001604052808381526020013373ffffffffffffffffffffffffffffffffffffffff1681526020018473ffffffffffffffffffffffffffffffffffffffff16815250905060008060003373ffffffffffffffffffffffffffffffffffffffff1673ffffffffffffffffffffffffffffffffffffffff168152602001908152602001600020905060008060008673ffffffffffffffffffffffffffffffffffffffff1673ffffffffffffffffffffffffffffffffffffffff1681526020019081526020016000209050828260020160008773ffffffffffffffffffffffffffffffffffffffff1673ffffffffffffffffffffffffffffffffffffffff1681526020019081526020016000208360030160008873ffffffffffffffffffffffffffffffffffffffff1673ffffffffffffffffffffffffffffffffffffffff168152602001908152602001600020600081548092919061026590610c3d565b919050558154811061027a57610279610c86565b5b906000526020600020906003020160008201518160000190805190602001906102a492919061085f565b5060208201518160010160006101000a81548173ffffffffffffffffffffffffffffffffffffffff021916908373ffffffffffffffffffffffffffffffffffffffff16021790555060408201518160020160006101000a81548173ffffffffffffffffffffffffffffffffffffffff021916908373ffffffffffffffffffffffffffffffffffffffff160217905550905050828160020160003373ffffffffffffffffffffffffffffffffffffffff1673ffffffffffffffffffffffffffffffffffffffff1681526020019081526020016000208260030160003373ffffffffffffffffffffffffffffffffffffffff1673ffffffffffffffffffffffffffffffffffffffff16815260200190815260200160002060008154809291906103ca90610c3d565b91905055815481106103df576103de610c86565b5b9060005260206000209060030201600082015181600001908051906020019061040992919061085f565b5060208201518160010160006101000a81548173ffffffffffffffffffffffffffffffffffffffff021916908373ffffffffffffffffffffffffffffffffffffffff16021790555060408201518160020160006101000a81548173ffffffffffffffffffffffffffffffffffffffff021916908373ffffffffffffffffffffffffffffffffffffffff1602179055509050507f0a62cfe8530aabd2e08e693f25db140f017d0001092cfefc2ffaf4f52237b91f856040516104ca9190610cc4565b60405180910390a15050505050565b6105606000803373ffffffffffffffffffffffffffffffffffffffff1673ffffffffffffffffffffffffffffffffffffffff1681526020019081526020016000206000018360405161052b9190610d59565b908152602001604051809103902060009054906101000a900473ffffffffffffffffffffffffffffffffffffffff1682610102565b5050565b600034905060008273ffffffffffffffffffffffffffffffffffffffff168260405161058f90610da1565b60006040518083038185875af1925050503d80600081146105cc576040519150601f19603f3d011682016040523d82523d6000602084013e6105d1565b606091505b5050905080610615576040517f08c379a000000000000000000000000000000000000000000000000000000000815260040161060c90610e39565b60405180910390fd5b7f0b77e93198e3ea13e1ef680f332d27d469ce973aa4f0a9eaba4a9b19b63490b68284604051610646929190610e68565b60405180910390a1505050565b816000803373ffffffffffffffffffffffffffffffffffffffff1673ffffffffffffffffffffffffffffffffffffffff168152602001908152602001600020600001826040516106a39190610d59565b908152602001604051809103902060006101000a81548173ffffffffffffffffffffffffffffffffffffffff021916908373ffffffffffffffffffffffffffffffffffffffff1602179055507fffbbe743847bdc2d03cb6e8de2e621e0a0aeb9ffc729516157509cfcc2d663c68183604051610720929190610eca565b60405180910390a15050565b6000803373ffffffffffffffffffffffffffffffffffffffff1673ffffffffffffffffffffffffffffffffffffffff1681526020019081526020016000206001018160405161077b9190610d59565b908152602001604051809103902060009054906101000a900460ff166107d6576040517f08c379a00000000000000000000000000000000000000000000000000000000081526004016107cd90610f46565b60405180910390fd5b61085c6000803373ffffffffffffffffffffffffffffffffffffffff1673ffffffffffffffffffffffffffffffffffffffff168152602001908152602001600020600001826040516108289190610d59565b908152602001604051809103902060009054906101000a900473ffffffffffffffffffffffffffffffffffffffff16610564565b50565b82805461086b90610f95565b90600052602060002090601f01602090048101928261088d57600085556108d4565b82601f106108a657805160ff19168380011785556108d4565b828001600101855582156108d4579182015b828111156108d35782518255916020019190600101906108b8565b5b5090506108e191906108e5565b5090565b5b808211156108fe5760008160009055506001016108e6565b5090565b6000604051905090565b600080fd5b600080fd5b600073ffffffffffffffffffffffffffffffffffffffff82169050919050565b600061094182610916565b9050919050565b61095181610936565b811461095c57600080fd5b50565b60008135905061096e81610948565b92915050565b600080fd5b600080fd5b6000601f19601f8301169050919050565b7f4e487b7100000000000000000000000000000000000000000000000000000000600052604160045260246000fd5b6109c78261097e565b810181811067ffffffffffffffff821117156109e6576109e561098f565b5b80604052505050565b60006109f9610902565b9050610a0582826109be565b919050565b600067ffffffffffffffff821115610a2557610a2461098f565b5b610a2e8261097e565b9050602081019050919050565b82818337600083830152505050565b6000610a5d610a5884610a0a565b6109ef565b905082815260208101848484011115610a7957610a78610979565b5b610a84848285610a3b565b509392505050565b600082601f830112610aa157610aa0610974565b5b8135610ab1848260208601610a4a565b91505092915050565b60008060408385031215610ad157610ad061090c565b5b6000610adf8582860161095f565b925050602083013567ffffffffffffffff811115610b0057610aff610911565b5b610b0c85828601610a8c565b9150509250929050565b60008060408385031215610b2d57610b2c61090c565b5b600083013567ffffffffffffffff811115610b4b57610b4a610911565b5b610b5785828601610a8c565b925050602083013567ffffffffffffffff811115610b7857610b77610911565b5b610b8485828601610a8c565b9150509250929050565b600060208284031215610ba457610ba361090c565b5b6000610bb28482850161095f565b91505092915050565b600060208284031215610bd157610bd061090c565b5b600082013567ffffffffffffffff811115610bef57610bee610911565b5b610bfb84828501610a8c565b91505092915050565b7f4e487b7100000000000000000000000000000000000000000000000000000000600052601160045260246000fd5b6000819050919050565b6000610c4882610c33565b91507fffffffffffffffffffffffffffffffffffffffffffffffffffffffffffffffff821415610c7b57610c7a610c04565b5b600182019050919050565b7f4e487b7100000000000000000000000000000000000000000000000000000000600052603260045260246000fd5b610cbe81610936565b82525050565b6000602082019050610cd96000830184610cb5565b92915050565b600081519050919050565b600081905092915050565b60005b83811015610d13578082015181840152602081019050610cf8565b83811115610d22576000848401525b50505050565b6000610d3382610cdf565b610d3d8185610cea565b9350610d4d818560208601610cf5565b80840191505092915050565b6000610d658284610d28565b915081905092915050565b600081905092915050565b50565b6000610d8b600083610d70565b9150610d9682610d7b565b600082019050919050565b6000610dac82610d7e565b9150819050919050565b600082825260208201905092915050565b7f54686572652077617320616e206572726f7221205472616e736665722066616960008201527f6c65642e00000000000000000000000000000000000000000000000000000000602082015250565b6000610e23602483610db6565b9150610e2e82610dc7565b604082019050919050565b60006020820190508181036000830152610e5281610e16565b9050919050565b610e6281610c33565b82525050565b6000604082019050610e7d6000830185610e59565b610e8a6020830184610cb5565b9392505050565b6000610e9c82610cdf565b610ea68185610db6565b9350610eb6818560208601610cf5565b610ebf8161097e565b840191505092915050565b60006040820190508181036000830152610ee48185610e91565b9050610ef36020830184610cb5565b9392505050565b7f436f6e7461637420646f65736e74206578697374000000000000000000000000600082015250565b6000610f30601483610db6565b9150610f3b82610efa565b602082019050919050565b60006020820190508181036000830152610f5f81610f23565b9050919050565b7f4e487b7100000000000000000000000000000000000000000000000000000000600052602260045260246000fd5b60006002820490506001821680610fad57607f821691505b60208210811415610fc157610fc0610f66565b5b5091905056fea26469706673582212201e300bd12310ca98c2ef4d921f108d4444d9b67cf4d357f6ab623c6ed98fde0164736f6c63430008090033",
  "devdoc": {
    "kind": "dev",
    "methods": {},
    "version": 1
  },
  "userdoc": {
    "kind": "user",
    "methods": {},
    "version": 1
  },
  "storageLayout": {
    "storage": [
      {
        "astId": 33,
        "contract": "contracts/M3ssaging3.sol:M3ssaging3",
        "label": "users",
        "offset": 0,
        "slot": "0",
        "type": "t_mapping(t_address,t_struct(User)21_storage)"
      }
    ],
    "types": {
      "t_address": {
        "encoding": "inplace",
        "label": "address",
        "numberOfBytes": "20"
      },
      "t_array(t_struct(Message)28_storage)dyn_storage": {
        "base": "t_struct(Message)28_storage",
        "encoding": "dynamic_array",
        "label": "struct M3ssaging3.Message[]",
        "numberOfBytes": "32"
      },
      "t_bool": {
        "encoding": "inplace",
        "label": "bool",
        "numberOfBytes": "1"
      },
      "t_mapping(t_address,t_array(t_struct(Message)28_storage)dyn_storage)": {
        "encoding": "mapping",
        "key": "t_address",
        "label": "mapping(address => struct M3ssaging3.Message[])",
        "numberOfBytes": "32",
        "value": "t_array(t_struct(Message)28_storage)dyn_storage"
      },
      "t_mapping(t_address,t_struct(User)21_storage)": {
        "encoding": "mapping",
        "key": "t_address",
        "label": "mapping(address => struct M3ssaging3.User)",
        "numberOfBytes": "32",
        "value": "t_struct(User)21_storage"
      },
      "t_mapping(t_address,t_uint256)": {
        "encoding": "mapping",
        "key": "t_address",
        "label": "mapping(address => uint256)",
        "numberOfBytes": "32",
        "value": "t_uint256"
      },
      "t_mapping(t_string_memory_ptr,t_address)": {
        "encoding": "mapping",
        "key": "t_string_memory_ptr",
        "label": "mapping(string => address)",
        "numberOfBytes": "32",
        "value": "t_address"
      },
      "t_mapping(t_string_memory_ptr,t_bool)": {
        "encoding": "mapping",
        "key": "t_string_memory_ptr",
        "label": "mapping(string => bool)",
        "numberOfBytes": "32",
        "value": "t_bool"
      },
      "t_string_memory_ptr": {
        "encoding": "bytes",
        "label": "string",
        "numberOfBytes": "32"
      },
      "t_string_storage": {
        "encoding": "bytes",
        "label": "string",
        "numberOfBytes": "32"
      },
      "t_struct(Message)28_storage": {
        "encoding": "inplace",
        "label": "struct M3ssaging3.Message",
        "members": [
          {
            "astId": 23,
            "contract": "contracts/M3ssaging3.sol:M3ssaging3",
            "label": "message",
            "offset": 0,
            "slot": "0",
            "type": "t_string_storage"
          },
          {
            "astId": 25,
            "contract": "contracts/M3ssaging3.sol:M3ssaging3",
            "label": "sender",
            "offset": 0,
            "slot": "1",
            "type": "t_address"
          },
          {
            "astId": 27,
            "contract": "contracts/M3ssaging3.sol:M3ssaging3",
            "label": "receiver",
            "offset": 0,
            "slot": "2",
            "type": "t_address"
          }
        ],
        "numberOfBytes": "96"
      },
      "t_struct(User)21_storage": {
        "encoding": "inplace",
        "label": "struct M3ssaging3.User",
        "members": [
          {
            "astId": 6,
            "contract": "contracts/M3ssaging3.sol:M3ssaging3",
            "label": "contacts",
            "offset": 0,
            "slot": "0",
            "type": "t_mapping(t_string_memory_ptr,t_address)"
          },
          {
            "astId": 10,
            "contract": "contracts/M3ssaging3.sol:M3ssaging3",
            "label": "contactExists",
            "offset": 0,
            "slot": "1",
            "type": "t_mapping(t_string_memory_ptr,t_bool)"
          },
          {
            "astId": 16,
            "contract": "contracts/M3ssaging3.sol:M3ssaging3",
            "label": "chat",
            "offset": 0,
            "slot": "2",
            "type": "t_mapping(t_address,t_array(t_struct(Message)28_storage)dyn_storage)"
          },
          {
            "astId": 20,
            "contract": "contracts/M3ssaging3.sol:M3ssaging3",
            "label": "counterMessages",
            "offset": 0,
            "slot": "3",
            "type": "t_mapping(t_address,t_uint256)"
          }
        ],
        "numberOfBytes": "128"
      },
      "t_uint256": {
        "encoding": "inplace",
        "label": "uint256",
        "numberOfBytes": "32"
      }
    }
  }
}