{
  "address": "0x4E9C076d87F05bb9550B6eB17B7Ba910FbD2d4FF",
  "abi": [
    {
      "inputs": [],
      "stateMutability": "nonpayable",
      "type": "constructor"
    },
    {
      "anonymous": false,
      "inputs": [
        {
          "indexed": false,
          "internalType": "address",
          "name": "receiver",
          "type": "address"
        }
      ],
      "name": "MessageSent",
      "type": "event"
    },
    {
      "anonymous": false,
      "inputs": [
        {
          "indexed": false,
          "internalType": "uint256",
          "name": "amount",
          "type": "uint256"
        },
        {
          "indexed": false,
          "internalType": "address",
          "name": "receiver",
          "type": "address"
        }
      ],
      "name": "MoneySent",
      "type": "event"
    },
    {
      "anonymous": false,
      "inputs": [
        {
          "indexed": false,
          "internalType": "string",
          "name": "name",
          "type": "string"
        },
        {
          "indexed": false,
          "internalType": "address",
          "name": "contact",
          "type": "address"
        }
      ],
      "name": "NewContact",
      "type": "event"
    },
    {
      "inputs": [
        {
          "internalType": "address",
          "name": "contact",
          "type": "address"
        },
        {
          "internalType": "string",
          "name": "name",
          "type": "string"
        }
      ],
      "name": "addContact",
      "outputs": [],
      "stateMutability": "nonpayable",
      "type": "function"
    },
    {
      "inputs": [
        {
          "internalType": "string",
          "name": "contact",
          "type": "string"
        },
        {
          "internalType": "string",
          "name": "_message",
          "type": "string"
        }
      ],
      "name": "sendMessage",
      "outputs": [],
      "stateMutability": "nonpayable",
      "type": "function"
    },
    {
      "inputs": [
        {
          "internalType": "address",
          "name": "receiver",
          "type": "address"
        },
        {
          "internalType": "string",
          "name": "message",
          "type": "string"
        }
      ],
      "name": "sendMessageToAddress",
      "outputs": [],
      "stateMutability": "nonpayable",
      "type": "function"
    },
    {
      "inputs": [
        {
          "internalType": "address",
          "name": "receiver",
          "type": "address"
        }
      ],
      "name": "transferMoney",
      "outputs": [],
      "stateMutability": "payable",
      "type": "function"
    },
    {
      "inputs": [
        {
          "internalType": "string",
          "name": "contact",
          "type": "string"
        }
      ],
      "name": "transferMoney",
      "outputs": [],
      "stateMutability": "payable",
      "type": "function"
    }
  ],
  "transactionHash": "0xd3dd9964be44a3eb2881851a8460ef9508662787dd7accf72104a267c34bdc1a",
  "args": [],
  "numDeployments": 4,
  "solcInputHash": "00ad188406692cf8e91b71742a87e4cb",
  "bytecode": "0x608060405234801561001057600080fd5b50610ab6806100206000396000f3fe60806040526004361061004a5760003560e01c80632073a4201461004f578063467fba0f1461007857806386ce9835146100a1578063c4448164146100bd578063f7aff901146100e6575b600080fd5b34801561005b57600080fd5b506100766004803603810190610071919061067b565b610102565b005b34801561008457600080fd5b5061009f600480360381019061009a91906106d7565b61013d565b005b6100bb60048036038101906100b6919061074f565b6101c8565b005b3480156100c957600080fd5b506100e460048036038101906100df919061067b565b6102b7565b005b61010060048036038101906100fb919061077c565b610390565b005b7f0a62cfe8530aabd2e08e693f25db140f017d0001092cfefc2ffaf4f52237b91f8260405161013191906107d4565b60405180910390a15050565b6101c46000803373ffffffffffffffffffffffffffffffffffffffff1673ffffffffffffffffffffffffffffffffffffffff1681526020019081526020016000206000018360405161018f9190610869565b908152602001604051809103902060009054906101000a900473ffffffffffffffffffffffffffffffffffffffff1682610102565b5050565b600034905060008273ffffffffffffffffffffffffffffffffffffffff16826040516101f3906108b1565b60006040518083038185875af1925050503d8060008114610230576040519150601f19603f3d011682016040523d82523d6000602084013e610235565b606091505b5050905080610279576040517f08c379a000000000000000000000000000000000000000000000000000000000815260040161027090610949565b60405180910390fd5b7f0b77e93198e3ea13e1ef680f332d27d469ce973aa4f0a9eaba4a9b19b63490b682846040516102aa929190610982565b60405180910390a1505050565b816000803373ffffffffffffffffffffffffffffffffffffffff1673ffffffffffffffffffffffffffffffffffffffff168152602001908152602001600020600001826040516103079190610869565b908152602001604051809103902060006101000a81548173ffffffffffffffffffffffffffffffffffffffff021916908373ffffffffffffffffffffffffffffffffffffffff1602179055507fffbbe743847bdc2d03cb6e8de2e621e0a0aeb9ffc729516157509cfcc2d663c681836040516103849291906109e4565b60405180910390a15050565b6000803373ffffffffffffffffffffffffffffffffffffffff1673ffffffffffffffffffffffffffffffffffffffff168152602001908152602001600020600101816040516103df9190610869565b908152602001604051809103902060009054906101000a900460ff1661043a576040517f08c379a000000000000000000000000000000000000000000000000000000000815260040161043190610a60565b60405180910390fd5b6104c06000803373ffffffffffffffffffffffffffffffffffffffff1673ffffffffffffffffffffffffffffffffffffffff1681526020019081526020016000206000018260405161048c9190610869565b908152602001604051809103902060009054906101000a900473ffffffffffffffffffffffffffffffffffffffff166101c8565b50565b6000604051905090565b600080fd5b600080fd5b600073ffffffffffffffffffffffffffffffffffffffff82169050919050565b6000610502826104d7565b9050919050565b610512816104f7565b811461051d57600080fd5b50565b60008135905061052f81610509565b92915050565b600080fd5b600080fd5b6000601f19601f8301169050919050565b7f4e487b7100000000000000000000000000000000000000000000000000000000600052604160045260246000fd5b6105888261053f565b810181811067ffffffffffffffff821117156105a7576105a6610550565b5b80604052505050565b60006105ba6104c3565b90506105c6828261057f565b919050565b600067ffffffffffffffff8211156105e6576105e5610550565b5b6105ef8261053f565b9050602081019050919050565b82818337600083830152505050565b600061061e610619846105cb565b6105b0565b90508281526020810184848401111561063a5761063961053a565b5b6106458482856105fc565b509392505050565b600082601f83011261066257610661610535565b5b813561067284826020860161060b565b91505092915050565b60008060408385031215610692576106916104cd565b5b60006106a085828601610520565b925050602083013567ffffffffffffffff8111156106c1576106c06104d2565b5b6106cd8582860161064d565b9150509250929050565b600080604083850312156106ee576106ed6104cd565b5b600083013567ffffffffffffffff81111561070c5761070b6104d2565b5b6107188582860161064d565b925050602083013567ffffffffffffffff811115610739576107386104d2565b5b6107458582860161064d565b9150509250929050565b600060208284031215610765576107646104cd565b5b600061077384828501610520565b91505092915050565b600060208284031215610792576107916104cd565b5b600082013567ffffffffffffffff8111156107b0576107af6104d2565b5b6107bc8482850161064d565b91505092915050565b6107ce816104f7565b82525050565b60006020820190506107e960008301846107c5565b92915050565b600081519050919050565b600081905092915050565b60005b83811015610823578082015181840152602081019050610808565b83811115610832576000848401525b50505050565b6000610843826107ef565b61084d81856107fa565b935061085d818560208601610805565b80840191505092915050565b60006108758284610838565b915081905092915050565b600081905092915050565b50565b600061089b600083610880565b91506108a68261088b565b600082019050919050565b60006108bc8261088e565b9150819050919050565b600082825260208201905092915050565b7f54686572652077617320616e206572726f7221205472616e736665722066616960008201527f6c65642e00000000000000000000000000000000000000000000000000000000602082015250565b60006109336024836108c6565b915061093e826108d7565b604082019050919050565b6000602082019050818103600083015261096281610926565b9050919050565b6000819050919050565b61097c81610969565b82525050565b60006040820190506109976000830185610973565b6109a460208301846107c5565b9392505050565b60006109b6826107ef565b6109c081856108c6565b93506109d0818560208601610805565b6109d98161053f565b840191505092915050565b600060408201905081810360008301526109fe81856109ab565b9050610a0d60208301846107c5565b9392505050565b7f436f6e7461637420646f65736e74206578697374000000000000000000000000600082015250565b6000610a4a6014836108c6565b9150610a5582610a14565b602082019050919050565b60006020820190508181036000830152610a7981610a3d565b905091905056fea2646970667358221220fd0358ac2f2644f0d7baed43054b74c1b5495c3c293796ff535fdc7f3c6085e664736f6c63430008090033",
  "devdoc": {
    "kind": "dev",
    "methods": {},
    "version": 1
  },
  "userdoc": {
    "kind": "user",
    "methods": {},
    "version": 1
  },
  "storageLayout": {
    "storage": [
      {
        "astId": 33,
        "contract": "contracts/M3ssaging3.sol:M3ssaging3",
        "label": "users",
        "offset": 0,
        "slot": "0",
        "type": "t_mapping(t_address,t_struct(User)21_storage)"
      }
    ],
    "types": {
      "t_address": {
        "encoding": "inplace",
        "label": "address",
        "numberOfBytes": "20"
      },
      "t_array(t_struct(Message)28_storage)dyn_storage": {
        "base": "t_struct(Message)28_storage",
        "encoding": "dynamic_array",
        "label": "struct M3ssaging3.Message[]",
        "numberOfBytes": "32"
      },
      "t_bool": {
        "encoding": "inplace",
        "label": "bool",
        "numberOfBytes": "1"
      },
      "t_mapping(t_address,t_array(t_struct(Message)28_storage)dyn_storage)": {
        "encoding": "mapping",
        "key": "t_address",
        "label": "mapping(address => struct M3ssaging3.Message[])",
        "numberOfBytes": "32",
        "value": "t_array(t_struct(Message)28_storage)dyn_storage"
      },
      "t_mapping(t_address,t_struct(User)21_storage)": {
        "encoding": "mapping",
        "key": "t_address",
        "label": "mapping(address => struct M3ssaging3.User)",
        "numberOfBytes": "32",
        "value": "t_struct(User)21_storage"
      },
      "t_mapping(t_address,t_uint256)": {
        "encoding": "mapping",
        "key": "t_address",
        "label": "mapping(address => uint256)",
        "numberOfBytes": "32",
        "value": "t_uint256"
      },
      "t_mapping(t_string_memory_ptr,t_address)": {
        "encoding": "mapping",
        "key": "t_string_memory_ptr",
        "label": "mapping(string => address)",
        "numberOfBytes": "32",
        "value": "t_address"
      },
      "t_mapping(t_string_memory_ptr,t_bool)": {
        "encoding": "mapping",
        "key": "t_string_memory_ptr",
        "label": "mapping(string => bool)",
        "numberOfBytes": "32",
        "value": "t_bool"
      },
      "t_string_memory_ptr": {
        "encoding": "bytes",
        "label": "string",
        "numberOfBytes": "32"
      },
      "t_string_storage": {
        "encoding": "bytes",
        "label": "string",
        "numberOfBytes": "32"
      },
      "t_struct(Message)28_storage": {
        "encoding": "inplace",
        "label": "struct M3ssaging3.Message",
        "members": [
          {
            "astId": 23,
            "contract": "contracts/M3ssaging3.sol:M3ssaging3",
            "label": "message",
            "offset": 0,
            "slot": "0",
            "type": "t_string_storage"
          },
          {
            "astId": 25,
            "contract": "contracts/M3ssaging3.sol:M3ssaging3",
            "label": "sender",
            "offset": 0,
            "slot": "1",
            "type": "t_address"
          },
          {
            "astId": 27,
            "contract": "contracts/M3ssaging3.sol:M3ssaging3",
            "label": "receiver",
            "offset": 0,
            "slot": "2",
            "type": "t_address"
          }
        ],
        "numberOfBytes": "96"
      },
      "t_struct(User)21_storage": {
        "encoding": "inplace",
        "label": "struct M3ssaging3.User",
        "members": [
          {
            "astId": 6,
            "contract": "contracts/M3ssaging3.sol:M3ssaging3",
            "label": "contacts",
            "offset": 0,
            "slot": "0",
            "type": "t_mapping(t_string_memory_ptr,t_address)"
          },
          {
            "astId": 10,
            "contract": "contracts/M3ssaging3.sol:M3ssaging3",
            "label": "contactExists",
            "offset": 0,
            "slot": "1",
            "type": "t_mapping(t_string_memory_ptr,t_bool)"
          },
          {
            "astId": 16,
            "contract": "contracts/M3ssaging3.sol:M3ssaging3",
            "label": "chat",
            "offset": 0,
            "slot": "2",
            "type": "t_mapping(t_address,t_array(t_struct(Message)28_storage)dyn_storage)"
          },
          {
            "astId": 20,
            "contract": "contracts/M3ssaging3.sol:M3ssaging3",
            "label": "counterMessages",
            "offset": 0,
            "slot": "3",
            "type": "t_mapping(t_address,t_uint256)"
          }
        ],
        "numberOfBytes": "128"
      },
      "t_uint256": {
        "encoding": "inplace",
        "label": "uint256",
        "numberOfBytes": "32"
      }
    }
  }
}